:020000040000fa
:080000000002040000000000f2
:020000040000fa
:04000800c80200002a
:020000040000fa
:04000c00c802000026
:020000040000fa
:04001000c802000022
:020000040000fa
:04001400c80200001e
:020000040000fa
:04001800c80200001a
:020000040000fa
:04001c00c802000016
:020000040000fa
:04002000c802000012
:020000040000fa
:04002400c80200000e
:020000040000fa
:04002800c80200000a
:020000040000fa
:04002c00c802000006
:020000040000fa
:04003000c802000002
:020000040000fa
:04003400a808000018
:020000040000fa
:04003800c8020000fa
:020000040000fa
:04003c00c8020000f6
:020000040000fa
:04004000c8020000f2
:020000040000fa
:04004400c8020000ee
:020000040000fa
:04004800ce080000de
:020000040000fa
:04004c00c8020000e6
:020000040000fa
:04005000c8020000e2
:020000040000fa
:04005400c8020000de
:020000040000fa
:04005800c8020000da
:020000040000fa
:04005c00e4070000b5
:020000040000fa
:04006000c8020000d2
:020000040000fa
:04006400c8020000ce
:020000040000fa
:04006800c8020000ca
:020000040000fa
:04006c00c8020000c6
:020000040000fa
:04007000c8020000c2
:020000040000fa
:04007400c8020000be
:020000040000fa
:04007800c8020000ba
:020000040000fa
:04007c00c8020000b6
:020000040000fa
:04008000c8020000b2
:020000040000fa
:04008400c8020000ae
:020000040000fa
:04008800c8020000aa
:020000040000fa
:04008c00c8020000a6
:020000040000fa
:04009000c8020000a2
:020000040000fa
:04009400c80200009e
:020000040000fa
:04009800c80200009a
:020000040000fa
:04009c00c802000096
:020000040000fa
:0400a000c802000092
:020000040000fa
:0400a400c80200008e
:020000040000fa
:0400a800c80200008a
:020000040000fa
:0400ac00c802000086
:020000040000fa
:0400b000c802000082
:020000040000fa
:0400b400c80200007e
:020000040000fa
:0400b800c80200007a
:020000040000fa
:0400bc00c802000076
:020000040000fa
:0400c000c802000072
:020000040000fa
:0400c400c80200006e
:020000040000fa
:0400c800c80200006a
:020000040000fa
:0400cc00c802000066
:020000040000fa
:0400d000c802000062
:020000040000fa
:0400d400c80200005e
:020000040000fa
:0400d800c80200005a
:020000040000fa
:0400dc00c802000056
:020000040000fa
:0400e000c802000052
:020000040000fa
:0400e400c80200004e
:020000040000fa
:0400e800c80200004a
:020000040000fa
:0400ec00c802000046
:020000040000fa
:0400f000c802000042
:020000040000fa
:0400f400c80200003e
:020000040000fa
:0400f800c80200003a
:020000040000fa
:0400fc00c802000036
:020000040000fa
:04010000c802000031
:020000040000fa
:04010400c80200002d
:020000040000fa
:04010800c802000029
:020000040000fa
:04010c00c802000025
:020000040000fa
:04011000c802000021
:020000040000fa
:04011400c80200001d
:020000040000fa
:04011800c802000019
:020000040000fa
:04011c00c802000015
:020000040000fa
:04012000c802000011
:020000040000fa
:04012400c80200000d
:020000040000fa
:04012800c802000009
:020000040000fa
:04012c00c802000005
:020000040000fa
:04013000c802000001
:020000040000fa
:04013400c8020000fd
:020000040000fa
:04013800c8020000f9
:020000040000fa
:04013c00c8020000f5
:020000040000fa
:04014000c8020000f1
:020000040000fa
:04014400c8020000ed
:020000040000fa
:04014800c8020000e9
:020000040000fa
:04014c00c8020000e5
:020000040000fa
:04015000c8020000e1
:020000040000fa
:04020800c802000028
:020000040000fa
:04020c00c802000024
:020000040000fa
:04021000c802000020
:020000040000fa
:04021400c80200001c
:020000040000fa
:04021800c802000018
:020000040000fa
:04021c00c802000014
:020000040000fa
:04022000c802000010
:020000040000fa
:04022400c80200000c
:020000040000fa
:04022800c802000008
:020000040000fa
:04022c00c802000004
:020000040000fa
:04023000c802000000
:020000040000fa
:04023400c8020000fc
:020000040000fa
:04023800c8020000f8
:020000040000fa
:04023c00c8020000f4
:020000040000fa
:04024000c8020000f0
:020000040000fa
:04024400c8020000ec
:020000040000fa
:04024800c8020000e8
:020000040000fa
:04024c00c8020000e4
:020000040000fa
:04025000c8020000e0
:020000040000fa
:04025400c8020000dc
:020000040000fa
:04025800c8020000d8
:020000040000fa
:04025c00c8020000d4
:020000040000fa
:04026000c8020000d0
:020000040000fa
:04026400c8020000cc
:020000040000fa
:04026800c8020000c8
:020000040000fa
:04026c00c8020000c4
:020000040000fa
:04027000c8020000c0
:020000040000fa
:04027400c8020000bc
:020000040000fa
:04027800c8020000b8
:020000040000fa
:04027c00c8020000b4
:020000040000fa
:04028000c8020000b0
:020000040000fa
:04028400c8020000ac
:020000040000fa
:04028800c8020000a8
:020000040000fa
:04028c00c8020000a4
:020000040000fa
:04029000c8020000a0
:020000040000fa
:04029400c80200009c
:020000040000fa
:04029800c802000098
:020000040000fa
:04029c00c802000094
:020000040000fa
:0402a000c802000090
:020000040000fa
:0402a400c80200008c
:020000040000fa
:0402a800c802000088
:020000040000fa
:0402ac00c802000084
:020000040000fa
:0402b000c802000080
:020000040000fa
:0402b400c80200007c
:020000040000fa
:0402b800c802000078
:020000040000fa
:0402bc00c802000074
:020000040000fa
:0402c000c802000070
:020000040000fa
:0402c400c80200006c
:020000040000fa
:0402c800c802000068
:020000040000fa
:0402cc00c802000064
:020000040000fa
:0402d000c802000060
:020000040000fa
:0402d400c80200005c
:020000040000fa
:0402d800c802000058
:020000040000fa
:0402dc00c802000054
:020000040000fa
:0402e000c802000050
:020000040000fa
:0402e400c80200004c
:020000040000fa
:0402e800c802000048
:020000040000fa
:0402ec00c802000044
:020000040000fa
:0402f000c802000040
:020000040000fa
:0402f400c80200003c
:020000040000fa
:0402f800c802000038
:020000040000fa
:0402fc00c802000034
:020000040000fa
:04030000c80200002f
:020000040000fa
:04030400c80200002b
:020000040000fa
:04030800c802000027
:020000040000fa
:04030c00c802000023
:020000040000fa
:04031000c80200001f
:020000040000fa
:04031400c80200001b
:020000040000fa
:04031800c802000017
:020000040000fa
:04031c00c802000013
:020000040000fa
:04032000c80200000f
:020000040000fa
:04032400c80200000b
:020000040000fa
:04032800c802000007
:020000040000fa
:04032c00c802000003
:020000040000fa
:04033000c8020000ff
:020000040000fa
:04033400c8020000fb
:020000040000fa
:04033800c8020000f7
:020000040000fa
:04033c00c8020000f3
:020000040000fa
:04034000c8020000ef
:020000040000fa
:04034400c8020000eb
:020000040000fa
:04034800c8020000e7
:020000040000fa
:04034c00c8020000e3
:020000040000fa
:04035000c8020000df
:020000040000fa
:100400008f8f20000eff20000e01880000000000ea
:10041000000020000000e000020032000001200087
:1004200020028800140007005b0007000000e000c5
:1004300003003a0020b02000010020000200370035
:100440000000200001002000810f70000100320038
:1004500014000700000020000000e000020032004d
:1004600000000200000000001c0b02000000000061
:100470000040da000000fe004440a9000000200017
:100480000000e0000300320000002000a00188000e
:100490004440a800000006008a1f78008b1f7800e7
:1004a0000000060091018800800478000000eb0045
:1004b0001a003700e284440032a0b4009905ba0063
:1004c000e284440032a0b4009906ba00e2844400f9
:1004d00032a0b4000006eb00476fde00fd07b2005b
:1004e000636ce10003003a00ebff07000000eb0043
:1004f0000a003700606ce10004003a00005deb0088
:100500008b05e900fdff3e00040037006168e10053
:10051000010032000086eb000b00070019c7ba008b
:100520001905ba000e04e00003003a000a00e000da
:10053000e0ff3a0000000600fe07b2009e018800be
:100540008a047800f5ff3700395dba008b05e900b1
:100550000c003200295dba008b05e900080032006a
:100560000c00e00003003a00e284440032a0b40032
:10057000f5ff370019ddba008b05e900faff3a00f4
:100580008904e800e184440032a0b40000000600c1
:100590000040da000000fe0000000500839f6800b4
:1005a0000100e00002003d0060001000e080180043
:1005b0000300e00002003d0060011100e08119002d
:1005c000720007004f00e00002003b0060001000d6
:1005d000e080180000000600140020007b003700b7
:1005e000f4ff2f00790037000001be001e00070055
:1005f0000470a70003f0a10003f8a30013003a0061
:100600006509b10010003200090035006928e100d9
:100610000200350001002800000005000000400035
:10062000818048008502e900fcff3a0000000600d6
:10063000f88f4200050035008100d1000080d30012
:100640008502e800fcff3a00000006008000eb0095
:10065000000005004f89de00820178007600370037
:100660006011b80084003700c70ade00f107b2004d
:10067000f50fb20008003200e1cf42000200320064
:100680000170a00024000500810f700001003200fd
:100690000408050044000500810f700002003a00c4
:1006a000140005008502e9000000400081c04800f8
:1006b000fcff3b000170a00024000500889fbe00e5
:1006c0008a9fbe008c1f7800c0000700c70033005f
:1006d00003866c006450e100240032006420e100d5
:1006e000270032006150e100220032006120e10069
:1006f000210032008b854200eb07b1000134b800c5
:10070000003ab8000804420089844a00013ab8005f
:100710000030b8008880400009014a00040033001e
:100720000000400081804800020149008b05e9007b
:10073000c909dd00830170000100320013002000b0
:10074000c814de004814dd004709de001200b200c4
:10075000c808de00088470007600070001f0a100e0
:100760000cf0a70001f0a000a90037006120e10013
:10077000ab0032000801be000200be00f7ff3700e8
:100780006150e100fcff3a00a50037006022b8008c
:10079000060220000000d0008180d2000482d20036
:1007a0008582d2000000a0000202520083825a001b
:1007b000030031000202420083824a000000a100cf
:1007c0000603e900f3ff3a0000000600889fbe0020
:1007d0008a9fbe00841f78007c0007004f007800cd
:1007e00011003300f0ff2f00838f6c0006003b00e8
:1007f000040565000a00a7000800370009f0a600fc
:100800001000200008003700820f5400838f5c0026
:10081000030039001000200001003e00000020000d
:1008200009f0a7000000ea004f05be004f04be001b
:100830000000e00000000600881f78000304780034
:100840000300e00007003d0060001000e080180099
:1008500060011900e081190002003b0001f02d0049
:10086000030037000400070008f0a70001f0a00013
:100870004f04780000000600889fbe008a9fbe00db
:1008800000827000040271000482710026003200b0
:100890000004be000200be006011b8006b09200019
:1008a000950220000182cf000a0039000541b10005
:1008b0000082cf00070039000541b1000982cf0056
:1008c000040039000541b1000882cf000100390061
:1008d0000541b10005425200120032000a003b00ff
:1008e00082817100610164008100d1000080d30029
:1008f0008984d3000884d3008b05e8000442e80013
:10090000f7ff3a00070037000804440089844c00d0
:1009100000004800818048008b05e9000442e9009e
:10092000f9ff3a00030007004f05be004f04be0068
:100930000000060081002000618055000b003d0092
:100940000b00200061fe2f000100e1001d003400bb
:1009500082817100610164008904d1000884d300a0
:100960000000e800faff3a00710020006100640016
:1009700003007000020060000900320061044400be
:10098000e0844c000988a500050032008b05e800d2
:100990006808e10002003a008904d1000884d3000d
:1009a000f20f20000258e10005003d00c75ddd00a8
:1009b000f907b20089807500080078000000060081
:1009c0000bf827008b007800000005000004be0033
:1009d00025ff07000003be000405be000200be00a4
:1009e00021ff0700844f7500000006000200be00d2
:1009f0006450e100050036006420e100020036008a
:100a00000968a30001003a000800be000160a000d0
:100a10004f0678004f05be004f04be0000000600e0
:0c0a2000f0ff2f00f1ff2700f9ff370066
:020000040000fa
:100a2c000200fa00d122a900d102a900c922a90012
:100a3c000040eb00004f78001d0037001e80fb00cb
:100a4c006a00b900800078004080200000814000de
:100a5c006000b8000089be001e80fb006a00b9006f
:100a6c008000780080802000008040008040eb00f7
:100a7c00014878001e80fb006a00b90080007800f5
:100a8c0080802000008040008040eb0011409800e6
:100a9c001e80fb006a00b9008000780000802000f6
:100aac00008140006000b8000089be001e4fe800c5
:100abc001e407800f64f5000e0ff36000080fa0030
:100acc00000006000600fa007a0207006000b80079
:100adc00008fbe000040eb00404798001900370023
:100aec004e4090000080fb006a00b90000007800c6
:100afc00e800400000802000008040001040900082
:100b0c000004e0000c0032004e4090000081fb001d
:100b1c001000200001002000820178008301e90010
:100b2c00030033000000400081804800fbff3700c9
:100b3c001e1f70001e9770004e4090000040e80091
:100b4c00404798004e409000f64f5000e4ff3600ae
:100b5c006000b800050007001e00be00030007007f
:100b6c00580207000080fa00000006000600fa0098
:100b7c0010079800210798000040eb00004f780008
:100b8c00150037001e0090000040780061406000a6
:100b9c0061406000614060000080fb00610060000b
:100bac004900dd00a11680000190a1000100700039
:100bbc00a0168800d502a800d502a9001e0090003e
:100bcc00ae0090008100d1000080d3001007980087
:100bdc00210798001e4fe8001e407800f74f500088
:100bec00e8ff3600d522a900cd22a800cd22a9000d
:100bfc000080fa00000006000200fa000040eb0042
:100c0c00004f78000f0037001e81fb006a10b900fe
:100c1c0000007800e40040000080200000804000cc
:100c2c001000be0061004000e08048006a11b9006d
:100c3c008201780042802000028141000089be00c0
:100c4c001e4fe8001e407800f64f5000eeff3600b5
:100c5c000080fa00000006000200fa000040eb00e1
:100c6c00004f78000040eb00004f78004800370040
:100c7c001e80fb006a00b90000007800e400400010
:100c8c0000802000008040001001be001e80fb0090
:100c9c006a00b900800078000080200000804000cd
:100cac001000be00800f5100818f590037003900b1
:100cbc001e80fb006a00b9008000780000802000d4
:100ccc00008040001000be00e00f5000e08f580084
:100cdc002e0032001e80fb006a00b9000000780074
:100cec00e8004000008020000080400010407800a8
:100cfc000004e0000e0032001e80fb006a00b90008
:100d0c008000780000802000008140006000b80066
:100d1c000089be001e80fb006a00b90080007800cc
:100d2c0080802000008040008040eb00014878006b
:100d3c009e81fb001e80fb006a00b9000000780059
:100d4c00e80040000080200000804000104090002f
:100d5c000004a2000080fb00004178006a18b90072
:100d6c0080007800808020000080400012409800b5
:100d7c001e80fb006a00b9008000780040802000d3
:100d8c00008140006000b8000089be001e4fe800e2
:100d9c001e407800f64f5000b5ff36000080fa0078
:100dac00000006000200fa000040eb00004f780043
:100dbc00080037001e80fb006a00b9008000780034
:100dcc0080802000008040008040eb0011409800a3
:100ddc001e4fe8001e407800f64f5000f5ff36001d
:100dec000080fa00000006000600fa00881f780058
:100dfc00000f780012079800230798001e00780057
:100e0c00f70f500021003e0018c0b3006011b8006d
:100e1c001e009000ae009000eefd07000000e00008
:100e2c0001003d000044eb000804e0001700320014
:100e3c0018c0b3000200200003f823001e0090002d
:100e4c00ae009000e1fd07000000e000010034005e
:100e5c000044eb000804e0000c003200020020000b
:100e6c00a33f24001e009000ae00900010fe07006f
:100e7c00dafd07001e0178006a11b90082017800c2
:100e8c0002802000028141000089be004f047800de
:100e9c000080fa00000006000400fa00000f780041
:100eac00214798000080fa00000006000000fa00bc
:100ebc0003000700110007000080fa000000060084
:100ecc000000fa00c022a800c802a800c002a800b6
:100edc00c842a800c822a8002c03a9002c43a900d2
:100eec002c23a9002c63a9002c83a9002ca3a800f7
:100efc002cc3a8000080fa00000006000000fa00d5
:100f0c0001198000f0cf2f000080600000198800cc
:100f1c0001198000000e20000100700000198800eb
:100f2c002043a8002143a8002343a80011198000e6
:100f3c00f0cf2f00008060001019880025e3a90075
:100f4c00f0c3b30024e3b7002119800000f02100a6
:100f5c0001007000201988001119800030fc2f004e
:100f6c00008060000040a00010198800111980005a
:100f7c0000002e0001007000101988003003a8003a
:100f8c003023a8003043a8003063a8003083a800a9
:100f9c0085a0a90095a0a80051058000f0f82f00ad
:100fac008080600000032000010070005005880064
:100fbc0021e3a8000080fa0000000600801f7800e2
:100fcc000000fa00001880003047880020188000cc
:100fdc0040478800101880005047880085a0a90061
:100fec000080fa004f007800004006000000fa0074
:100ffc00304780008000eb0096fd070002002000c7
:10100c0003982300aafd070074fd07000000780078
:10101c000080fa00000006000000fa004047800043
:10102c008000eb008bfd07000200200003982300da
:10103c009ffd070069fd0700000078000080fa00a2
:10104c00000006000000fa00504780008000eb0012
:10105c0080fd0700020020000398230094fd070088
:10106c005efd0700000078000080fa00000006001a
:10107c000000fa0005e1a9000421a90004c1a9009f
:10108c000441a90021088000f0fc2f0000806000c2
:10109c000040a000200888000021ef00904780004d
:1010ac00a147800002e8230003002000b4fd0700e4
:1010bc00000078001008880021058000f0ff28004f
:1010cc000080600000c0a000200588008460a9009a
:1010dc009460a80005e1a80013e1a9001221a90061
:1010ec0012c1a90091088000f0fc2f000080600064
:1010fc000040a000900888004105800080ff2f0070
:10110c00008060000000a00040058800904780002f
:10111c00a1478000027d20000300200098fd0700fd
:10112c0000007800700888000a21ef008500a900f3
:10113c009500a80013e1a800d062a9000080fa0075
:10114c00000006003600f800809fbe00829fbe00a3
:10115c00849fbe00869fbe003400f8000000200073
:10116c00a00188000000fa00a3fe07008460a9001b
:10117c000080fa003400f9004f03be004f02be009d
:10118c004f01be004f00be003600f90000400600c3
:10119c003600f800809fbe00829fbe00849fbe0078
:1011ac00869fbe003400f80000002000a0018800db
:1011bc000000fa0043fe07008500a9000080fa0039
:1011cc003400f9004f03be004f02be004f01be00b9
:1011dc004f00be003600f900004006000000fa0087
:1011ec00b04780000080fa00000006000000fa0002
:1011fc00f628ef000080fa00000006000000fa005c
:10120c00d082a800c8c2a800c8a2a800d0a2a8007a
:10121c00c8e2a800c062a800c102a8000080fa00c1
:10122c00000006000400fa00100798000040eb00d4
:10123c00004f78001e009000e30f50002800320091
:10124c00e30f500005003e00e10f50001200320089
:10125c00e10f500019003e0007003700e50f500069
:10126c0031003200e50f500026003900e60f500027
:10127c00350032003d003700901680007000600091
:10128c0000f0a7000000ea000000e9004f00de00bb
:10129c00004f780035003700511680000004200004
:1012ac000080600000f0a7000000ea000000e900e8
:1012bc004f00de00004f78002c00370051168000e4
:1012cc00000220000080600000f0a7000000ea008f
:1012dc000000e9004f00de00004f780023003700cb
:1012ec0091168000000220000080600000f0a70032
:1012fc000000ea000000e9004f00de00004f78001b
:10130c001a00370051168000000820000080600091
:10131c0000f0a7000000ea000000ea004f00de0029
:10132c00004f780011003700101680006800600034
:10133c0000f0a7000000ea000000e9004f00de000a
:10134c00004f7800090037001116800000102000b3
:10135c000080600000f0a7000000ea000000e90037
:10136c004f00de00004f7800000000001e407800a7
:10137c000080fa00000006000200fa0040a7a90055
:10138c0011028000f0f12f00008060001002880034
:10139c00213a800000fe2f0000806000203a880077
:1013ac00213a8000f0f32f0000806000203a880082
:1013bc00313a800000e02f00808060009002200015
:1013cc0001007000303a880010c0b300004f780064
:1013dc001e81fb0080072000a1092000337420002f
:1013ec008049780081497800824978002174200076
:1013fc0091407800114798001e4090000004a00016
:10140c00104798001e4090000081fb0060042000f3
:10141c0071052000237420008049780081497800f0
:10142c00824978000400070090478800a147880093
:10143c000080fa00000006000000fa00303a80003c
:10144c000080e8008000eb00025127000289b900ff
:10145c0002017800030720000382b90084017800a0
:10146c0003014100035127000300b80001014100b2
:10147c0082007800223a80004611de006341610050
:10148c000281fb008281e800223a80000241780050
:10149c007f4161000281fb000281e8000299b900e2
:1014ac0002017800cf91de0039fc07000080fa00c1
:1014bc00000006000000fa00ff3ffc000080fa006c
:1014cc00000006000000fa000000eb00900288000b
:1014dc00000088000080fa00000006000000fa00fe
:1014ec003b0007000080fa00000006000000fa0034
:1014fc00ecc8bf000080fb008000eb0055fc07002f
:10150c000001be00e000200037fe0700d18e200055
:10151c0091407800400620000088b9000000780057
:10152c0000407800ece8b700020007000080fa00e9
:10153c00000006000000fa00b7fe0700004078002b
:10154c00ede8b700a9fe070000407800eee8b70010
:10155c00bcfe070000407800efe8b7000000eb008d
:10156c0030ff07000004e0000300320010c0b3009d
:10157c00f0e8b70001003700f068ef000080fa00d7
:10158c00000006000000fa00ecc8bf00ea4f500053
:10159c000d003e00ecc8bf008080fb00a0002000c6
:1015ac0000017800110009008280d800004078000a
:1015bc000080fb00cf80de0023fc07000001be0092
:1015cc00e000200008fe07000080fa000000060082
:1015dc000000fa0080c2b300ece8b700ed68ef0041
:1015ec00ee68ef00ef68ef0000c0eb00f0e8b7002a
:0815fc000080fa000000060067
:020000040000fa
:1016040000080000e600000000000000f6080000ea
:101614000200000000000000e608000006000000d0
:1016240000000000ec0800000600000000000000bc
:0416340000000000b2
:020000040000fa
:101638000000fa0051ff07008efe0700f0fe0700c9
:10164800f8fc07001afe0700a5ff070083fd070046
:08165800a7ff0700fdff3700aa
:020000040000fa
:0200000401f009
:04000c0001000000ef
:020000040000fa
:0200000401f009
:0400100003000000e9
:020000040000fa
:0200000401f009
:040014004b0000009d
:020000040000fa
:0200000401f009
:04001c00deff000003
:00000001FF
